:0400000080314628DD
:100008007E14803120007F08F0002E008C12200022
:100018009E13182896160130BD000030BE00252812
:100028009612BD01BE0125283E08003A03191D2875
:1000380025283D08003A03190E28013A0319142807
:100048002528FF30B707FF30B83DB81F3F283B30A1
:10005800B7000030B800FF30B907FF30BA3DBA1F0B
:100068003F289E1398140130BB000030BC00B70134
:10007800B801B901BA019C01BA1F9E177008FF00A8
:100088007E10090080314828373084000030850010
:100098000E308431BB247E1020008031532820008C
:1000A800B701B801B901BA01B501B60184315A24C2
:1000B800803184319F2480318231FF228031843124
:1000C800AD24803107302000B3003308F40002303B
:1000D800833140238031C130F6008430F700843109
:1000E80028248031200098142000BA1BDB28CB304C
:1000F800A2008430A3003808A5003708A4004230C5
:100108008131AF218031CB302000A2008430A300A0
:100118003A08A5003908A4003F308131AF21803169
:1001280006302000B3003308F40001308331402347
:1001380080318E30F6008430F700843128248031F5
:1001480006302000B3003308F40001308331402327
:1001580080313F30F6000030F700843128248031A8
:10016800CF30F6008430F7008431282480310930FC
:100178002000B3003308F40001308331402380317C
:100188008E30F6008430F70084312824803109301D
:100198002000B3003308F40001308331402380315C
:1001A8004230F6000030F7008431282480312000E6
:1001B8003B033C04031D132907302000B300330818
:1001C800F40002308331402380318B30F6008430D4
:1001D800F70084312824803107302000B300330829
:1001E800F4000230833140238031C130F60084307E
:1001F800F70084312824803120009E130D1C062925
:10020800BB01BC0105302000B4000F30B300F13051
:10021800890B0C29B30B0C29B40B0C29DB280530EE
:100228002000B4000F30B300F130890B1929B30B4B
:100238001929B40B192920008D1D51299E13073047
:10024800B3003308F40002308331402380318B300F
:10025800F6008430F70084312824803107302000EC
:10026800B3003308F4000230833140238031C630B4
:10027800F6008430F70084312824803115302000BE
:10028800B4004B30B300BE30890B4829B30B482962
:10029800B40B48290000200098140D1D82299E17D0
:1002A8000730B3003308F400023083314023803133
:1002B8008B30F6008430F7008431282480310730F1
:1002C8002000B3003308F40002308331402380312A
:1002D800B530F6008430F7008431282480312000BE
:1002E800981015302000B4004B30B300BE30890B95
:1002F8007B29B30B7B29B40B7B29000020000D1C44
:1003080095290130B9070030BA3D05302000B40006
:100318000F30B300F130890B8F29B30B8F29B40B41
:100328008F2920008D1C7828FF30B907FF30BA3D8F
:10033800BA1FA229B901BA01B701B80105302000D6
:10034800B4000F30B300F130890BA829B30BA829EA
:10035800B40BA82978282000B1002430A60026086C
:10036800AA0020002308A7002208A600A20A031951
:10037800A30A26088400270885000008A800280882
:10038800B20032080319F92A253032060319D82990
:100398003208A6003108860087012608810001304E
:1003A800A6002608B107B529AF01B001AC012208A3
:1003B8008400230885000008843191248131031CBE
:1003C800162A2000AF01B0010A30F1000030F20017
:1003D80020003008F4002F08F30084310D24813107
:1003E80072082000B0007108AF00220884002308BA
:1003F80085000008D03EA600FF3003180030A70093
:100408002608AF072708B03D0130A2070030A33DFA
:100418002208840023088500000884319124813152
:100428000318E82920002308A7002208A600A20A2A
:100438000319A30A26088400270885000008B200CB
:10044800003A0319F92A643A03192E2A0D3A0319B6
:100458002E2AB52920002A0886008701403FAD00D2
:10046800413FAE000230A6002608AA07AE1F452A63
:100478000330A6002608AC04AD09AE09AD0A03197D
:10048800AE0AB201B20A0530320603196A2A3208E6
:10049800A600A701A635A70D813026078400843061
:1004A800273D8500003FA800013FA90029082E022A
:1004B800031D602A28082D02031C6A2A0130A600A1
:1004C8002608B20705303206031D4B2A2F083004D0
:1004D8000319762A2C0803390319762AFF30AF0747
:1004E800FF30B03D3208A600A701A61BA7032708C6
:1004F800803AA8003008803A2802031D852A2F0870
:1005080026020318922A20003208A600A701A61B7B
:10051800A7032608AF022708B03B952A2000AF01A1
:10052800B0012F0830040319AC2A2030A600310886
:1005380086008701260881000130A6002608B10739
:10054800FF30AF07FF30B03D2F083004031D992A54
:100558002C0803390319BB2A2D30A6003108860060
:100568008701260881000130A6002608B107320855
:10057800A6002608AB00FF30A6002608AB072B0A0A
:100588000319B5290A30F9000030FA002B08A60033
:10059800A701A635A70D8130260784008430273DA2
:1005A8008500003FF100013FF2002E08F4002D08FD
:1005B800F3008331802381317208FC007108FB004D
:1005C8008331B42381317908303E2000A8002808FF
:1005D800B2003208A600310886008701260881008B
:1005E8000130A6002608B107BF2A2000310886007E
:1005F8008701810108000030843142248231D030E3
:10060800F400CA30890B062BF40B062B0330843117
:100618006E2482313430F400F230890B112BF40B44
:10062800112B033084316E2482317330F40048304A
:10063800890B1C2BF40B1C2B033084316E24823164
:10064800023084316E248231023084316E2482314A
:10065800083084316E248231003084316E24823136
:100668000C3084316E248231003084316E24823122
:10067800063084316E240800F7007703031D602BD1
:1006880074087F3EF5007508FA007A08F500043012
:10069800F536890B4C2B7508F6007608F8007A08B1
:1006A8000F39F5007508F900780884316E24833114
:1006B800790884316E24080002307706031D08008B
:1006C8007408BF3EF5007508FA007A08F500043092
:1006D800F536890B6C2B7508F6007608F8007A0851
:1006E8000F39F5007508F900780884316E248331D4
:1006F800790884316E240800F601F7017108720444
:100708000319AF2BF801F80AF21B942B0130F135CD
:10071800F20D890B8B2B0130F5007508F807882B33
:100728000130F635F70D890B952B72087402031DFD
:100738009F2B71087302031CA62B7108F302720821
:10074800F43B76140130F236F10C890BA72B0130FB
:10075800F802031D942B7708F2007608F1000800D0
:1007680079087A040319DC2B2000A101A10AFA1BDD
:10077800C72B0130F935FA0D890BBE2B0130A000CB
:100788002008A107BB2B7A087C02031DCD2B790812
:100798007B02031CD32B7908FB027A08FC3B01304F
:1007A800FA36F90C890BD42B0130A102031DC72B93
:1007B8007C08FA007B08F9000800F50075080F3975
:1007C800F2007208F3007508F039F2007208F400BC
:1007D80020008E157408F2000430F236890BF12BD4
:1007E800720884314224833120000E166A30890B46
:1007F800FB2B003220000E1273088431422483310F
:1008080020000E166A30890B072C003220000E12C9
:100818000800F501F601711C152C7308F50774081A
:10082800F63D0130F335F40D890B162C0130F23604
:10083800F10C890B1B2C71087204031D0F2C760810
:10084800F2007508F1000800F901FA017608790745
:10085800840077087A3D850012000319080076089D
:100868007907840077087A3D850000088331E12301
:1008780084310130F9070030FA3D2A2CF100711C4F
:10088800482C20008E164A2C20008E12F11C4E2C6B
:100898000E174F2C0E13711D532C0E15542C0E11C0
:1008A800F11D582C8E1708008E13080020009101A6
:1008B800920193018C018D018E0196019701980197
:1008C8003E00B801C301CE01200012149214121583
:1008D80092150800F30020008E1173088431422419
:1008E800843120000E162A30F2008E30890B7A2CC3
:1008F800F20B7A2C20000E120800013400340A345E
:10090800003464340034E834033410342734203499
:1009180020342034203420340034F200F1013A30FD
:10092800720203189D2C30307202031C9D2CF101B9
:10093800F10A710C080020009E014F309F009E13A1
:100948009C01F3309D008B172E00961620009E13F5
:100958000800003084316E248431013084316E24E3
:1009680008005334743461347234743400346400CD
:1009780080010131890BBC2C0034493464346C3457
:1009880065340034533474346F347034003425348F
:0A0998003234643400343A34003481
:020000040001F9
:0A000E009F173F279F3FFF2FFF3F82
:00000001FF
