:08000000803102288731FD2F39
:100F08000800873184278731873197278731003058
:100F1800F6008830F7000230F8000030F900873119
:100F2800D1278731962F20001710971017150130F9
:100F38009800D030F000CA30890BA02FF00BA02FFA
:100F48002000171117150E309800D030F000CA3065
:100F5800890BAC2FF00BAC2F20001711080071087B
:100F6800F5007008F4007408840075088500120004
:100F78000319C32F0130F4070030F53DB72F70096E
:100F8800F2007109F300F20A0319F30A74087207F0
:100F9800F0007508733DF1000800FB01FC017708BB
:100FA800F1007608F0008731B327873171087C0299
:100FB800031DE02F70087B0203180800200097101B
:100FC8001714171576087B07840077087C3D850081
:100FD80000089800D030FA00CA30890BF12FFA0BBC
:100FE800F12F2000171017110130FB070030FC3DCE
:100FF800D32F20008731852F483465346C346C3406
:101008006F34203457346F3472346C3464340034A1
:020000040001F9
:0A000E00FF37FE3F9F3FFF3FFF3F1B
:00000001FF
