:08000000803102288731FD2F39
:100DAA0000308631EC26863101308631EC26080087
:100DBA0020009101920193018C018D018E0196010F
:100DCA00970198013E00B801C301CE010800F20064
:100DDA0020008E1172088631FF26863120000E16F9
:100DEA002A30F1008E30890BF82EF10BF82E2000F4
:100DFA000E120800F000701C052F20008E16072F17
:100E0A0020008E12F01C0B2F0E170C2F0E13701DC4
:100E1A00102F0E15112F0E11F01D152F8E17080009
:100E2A008E130800F801F90175087807840076081E
:100E3A00793D8500120003190800750878078400B7
:100E4A007608793D850000088731502787310130BF
:100E5A00F8070030F93D192F8631DD2687318731B1
:100E6A00BC2787318631D5268731F301F30A013051
:100E7A0087317C2787310030F5008830F6008731CA
:100E8A00172787310B30FA006230890B4A2FFA0B89
:100E9A004A2F0032472FF40074080F39F100710805
:100EAA00F2007408F039F1007108F30020008E1581
:100EBA007308F1000430F136890B602F710886310E
:100ECA00FF26873120000E166A30890B6A2F0032FE
:100EDA0020000E1272088631FF26873120000E1676
:100EEA006A30890B762F003220000E120800F600B5
:100EFA007603031D9C2F73087F3EF4007408F900E3
:100F0A007908F4000430F436890B882F7408F50048
:100F1A007508F70079080F39F4007408F8007708A3
:100F2A008631EC26873178088631EC2608000230B3
:100F3A007606031D08007308BF3EF4007408F90022
:100F4A007908F4000430F436890BA82F7408F500E8
:100F5A007508F70079080F39F4007408F800770863
:100F6A008631EC26873178088631EC260800003075
:100F7A008631FF268731D030F300CA30890BC32F60
:100F8A00F30BC32F03308631EC2687313430F3005C
:100F9A00F230890BCE2FF30BCE2F03308631EC269D
:100FAA0087317330F3004830890BD92FF30BD92FCF
:100FBA0003308631EC26873102308631EC268731C0
:100FCA0002308631EC26873108308631EC268731AB
:100FDA0000308631EC2687310C308631EC26873199
:100FEA0000308631EC26873106308631EC2608003F
:100FFA0020008731312F483465346C346C346F34B7
:0E100A00203457346F3472346C346434003444
:020000040001F9
:0A000E009F173F279F3FFF2FFF3F82
:00000001FF
