:08000000803102288731FD2F39
:100C800000308631482686310130863148260800FA
:100C9000F20020008E11720886316F268631200006
:100CA0000E162A30F1008E30890B542EF10B542E83
:100CB00020000E12080020009101920193018C0186
:100CC0008D018E019601970198013E00B801C30184
:100CD000CE01200012149214121592150800F00093
:100CE000701C752E20008E16772E20008E12F01CA0
:100CF0007B2E0E177C2E0E13701D802E0E15812E4E
:100D00000E11F01D852E8E1708008E130800F801B5
:100D1000F9017508780784007608793D850012008E
:100D2000031908007508780784007608793D850066
:100D300000088631A12686310130F8070030F93DE0
:100D4000892EF40074080F39F1007108F20074085C
:100D5000F039F1007108F30020008E157308F100DE
:100D60000430F136890BB12E710886316F26863139
:100D700020000E166A30890BBB2E003220000E12A6
:100D8000720886316F26863120000E166A30890B74
:100D9000C72E003220000E120800F6007603031D55
:100DA000ED2E73087F3EF4007408F9007908F40012
:100DB0000430F436890BD92E7408F5007508F70055
:100DC00079080F39F4007408F8007708863148264E
:100DD0008631780886314826080002307606031DE1
:100DE00008007308BF3EF4007408F9007908F400A5
:100DF0000430F436890BF92E7408F5007508F700F5
:100E000079080F39F4007408F8007708863148260D
:100E100086317808863148260800003086316F26F2
:100E20008731D030F300CA30890B142FF30B142F05
:100E300003308631482687313430F300F230890B95
:100E40001F2FF30B1F2F0330863148268731733055
:100E5000F3004830890B2A2FF30B2A2F03308631F9
:100E60004826873102308631482687310230863164
:100E70004826873108308631482687310030863150
:100E8000482687310C30863148268731003086313C
:100E900048268731063086314826080086315B2691
:100EA000873187310D278731863140268731F3011D
:100EB000F30A01308631CD2687310030F5008830C5
:100EC000F60086318726873120000D1D832F86315D
:100ED00040268731F301F30A01308631CD26873170
:100EE0001230F5008830F6008631872687312930A8
:100EF000FB009630FA007F30890B7C2FFA0B7C2F99
:100F0000FB0B7C2F000020008D1DA22F8631402678
:100F10008731F301F30A01308631CD2687311D3048
:100F2000F5008830F6008631872687312930FB00AE
:100F30009630FA007F30890B9B2FFA0B9B2FFB0B0F
:100F40009B2F000020008D1CC12F86314026873149
:100F5000F301F30A01308631CD2687310C30F500DC
:100F60008830F6008631872687312930FB0096309D
:100F7000FA007F30890BBA2FFA0BBA2FFB0BBA2F6E
:100F8000000020000D1CE02F863140268731F30140
:100F9000F30A01308631CD2687312230F5008830C2
:100FA000F6008631872687312930FB009630FA001B
:100FB0007F30890BD92FFA0BD92FFB0BD92F0000CB
:100FC000863140268731F301F30A01308631CD2680
:100FD00087311830F5008830F60086318726873152
:100FE0002930FB009630FA007F30890BF52FFA0B81
:100FF000F52FFB0BF52F0000642F200087314E2FBB
:10100000483465346C346C346F34203457346F3466
:1010100072346C34643400344D3469346E34753455
:10102000733400345334743461347234743400349F
:101030004D34613469346E340034533474346F3455
:0E1040007034003450346C3475347334003422
:020000040001F9
:0A000E009F173F279F3FFF2FFF3F82
:00000001FF
