:0400000080316728BC
:100008007E14803120007F08FC002E008C12200016
:100018009E13182896160130C7000030C8002528FE
:100028009612C701C80125284808003A03191D2857
:1000380025284708003A03190E28013A03191428FD
:100048002528FF30C307FF30C43DC41F60283B305C
:10005800C3000030C400FF30C507FF30C63DC61FCF
:1000680060289E13C301C401F301F30A02308331EF
:10007800762380312430F5008530F6008431A824B9
:100088008031F301F30A0230833176238031663000
:10009800F5008530F6008431A82480311530FB0046
:1000A8004B30FA00BE30890B5728FA0B5728FB0B48
:1000B80057280032200098149C01C61F9E177C0800
:1000C800FF007E100900803169282000C301C401A7
:1000D800C501C601C701C801C901CA01CB01CC01CC
:1000E800CD01CE017E1020008131CB292000BD003A
:1000F8003030B2003208B60020002F08B3002E08B6
:10010800B200AE0A0319AF0A32088400330885002A
:100118000008B4003408BE003E080319C52925307C
:100128003E060319A3283E08B2003D088600870151
:10013800320881000130B2003208BD078028BB01B7
:10014800BC01B8012E0884002F08850000088531FD
:1001580040258031031CE1282000BB01BC010A3086
:100168002000A0000030A1003C08A3003B08A2002A
:1001780084317024803120002108BC002008BB0095
:100188002E0884002F0885000008D03EB200FF30FA
:1001980003180030B3003208BB073308BC3D0130F8
:1001A800AE070030AF3D2E0884002F0885000008F8
:1001B8008531402580310318B32820002F08B3006B
:1001C8002E08B200AE0A0319AF0A320884003308B9
:1001D80085000008BE00003A0319C529643A0319CE
:1001E800F9280D3A0319F9288028200036088600D6
:1001F8008701403FB900413FBA000230B2003208DF
:10020800B607BA1F10290330B2003208B804B9097A
:10021800BA09B90A0319BA0ABE01BE0A05303E0670
:10022800031935293E08B200B301B235B30D1A30AF
:10023800320784008530333D8500003FB400013F1C
:10024800B50035083A02031D2B2934083902031C6E
:1002580035290130B2003208BE0705303E06031DBD
:1002680016293B083C0403194129380803390319A6
:100278004129FF30BB07FF30BC3D3E08B200B30147
:10028800B21BB3033308803AB4003C08803A340206
:10029800031D50293B08320203185D2920003E083F
:1002A800B200B301B21BB3033208BB023308BC3B34
:1002B80060292000BB01BC013B083C0403197729D5
:1002C8002030B2003D0886008701320881000130E5
:1002D800B2003208BD07FF30BB07FF30BC3D3B080A
:1002E8003C04031D642938080339031986292D3075
:1002F800B2003D0886008701320881000130B20053
:100308003208BD073E08B2003208B700FF30B2001D
:100318003208B707370A031980280A30A8000030C6
:10032800A9003708B200B301B235B30D1A3032074D
:1003380084008530333D8500003FA000013FA100C7
:100348003A08A3003908A2008331B623803120007F
:100358002108AB002008AA008331EB23803120005C
:100368002808303EB4003408BE003E08B2003D08FC
:1003780086008701320881000130B2003208BD07CB
:100388008A2920003D088600870181010800200095
:10039800C301C401C501C601C101C20185310625D9
:1003A800813185314F2581318231EB22813185318F
:1003B8006E2581312000A301A30A02308331322344
:1003C800813176302000A5008530A60084318C2448
:1003D8008131200098142000C61B532A7B30AE00C0
:1003E8008530AF004408B1004308B0004C3080317C
:1003F8007A2081317B302000AE008530AF0046087E
:10040800B1004508B000493080317A2081312000A0
:10041800A301A30A01308331322381312A3020001D
:10042800A5008530A60084318C2481312000A301E9
:10043800A30A013083313223813149302000A500DD
:100448000030A60084318C2481317F302000A50043
:100458008530A60084318C24813104302000BF000F
:100468003F08A30001308331322381312A30200034
:10047800A5008530A60084318C2481310430200009
:10048800BF003F08A30001308331322381314C3053
:100498002000A5000030A60084318C24813105306D
:1004A8002000C0000F30BF00F130890B592ABF0B64
:1004B800592AC00B592A20008D1D8F2A9E13A3018B
:1004C800A30A023083313223813124302000A50071
:1004D8008530A60084318C2481312000A301A30A31
:1004E800023083313223813166302000A500853007
:1004F800A60084318C24813115302000C0004B3097
:10050800BF00BE30890B862ABF0B862AC00B862AFD
:100518000000200098140D1DBE2A9E17A301A30AEF
:10052800023083313223813124302000A500853008
:10053800A60084318C2481312000A301A30A023053
:100548008331322381315D302000A5008530A6003B
:1005580084318C2481312000981015302000C0008F
:100568004B30BF00BE30890BB72ABF0BB72AC00B70
:10057800B72A000020000D1CD12A0130C507003021
:10058800C63D05302000C0000F30BF00F130890B98
:10059800CB2ABF0BCB2AC00BCB2A20008D1CEF29FE
:1005A800FF30C507FF30C63DC61FDE2AC501C6019C
:1005B800C301C40105302000C0000F30BF00F13076
:1005C800890BE42ABF0BE42AC00BE42AEF29003088
:1005D8008431DA248231D0302000A300C930890B5D
:1005E800F32AA30BF32A003203308431F124823139
:1005F80034302000A300F130890B002BA30B002B13
:10060800003203308431F124823173302000A3009A
:100618004730890B0D2BA30B0D2B0032033084318F
:10062800F124823102308431F12482310230843164
:10063800F124823108308431F12482310030843150
:10064800F12482310C308431F1248231003084313C
:10065800F124823106308431F12408002000A600FC
:100668002603031D542B23087F3EA4002408A90059
:100678002908A4000430A436890B3F2B2408A500C0
:100688002508A70029080F39A4002408A80027086E
:100698008431F1248331200028088431F1240800B2
:1006A800023020002606031D08002308BF3EA400D0
:1006B8002408A9002908A4000430A436890B612B5A
:1006C8002408A5002508A70029080F39A400240834
:1006D800A80027088431F1248331200028088431B8
:1006E800F1240800F6007603031D962B73087F3E5D
:1006F800F4007408F9007908F4000430F436890B22
:10070800822B7408F5007508F70079080F39F40092
:100718007408F800770885312D25833178088531EC
:100728002D25080002307606031D08007308BF3E19
:10073800F4007408F9007908F4000430F436890BE1
:10074800A22B7408F5007508F70079080F39F40032
:100758007408F800770885312D25833178088531AC
:100768002D2508002000A501A60120082104031951
:10077800E62BA701A70AA11BCB2B0130A035A10DA1
:10078800890BC22B0130A4002408A707BF2B013016
:10079800A535A60D890BCC2B21082302031DD62BCA
:1007A80020082202031CDD2B2008A2022108A33BFB
:1007B80025140130A136A00C890BDE2B0130A702CD
:1007C800031DCB2B2608A1002508A0000800200047
:1007D800280829040319132CAD01AD0AA91BFE2B07
:1007E8000130A835A90D890BF52B0130AC002C0878
:1007F800AD07F22B29082B02031D042C28082A0216
:10080800031C0A2C2808AA022908AB3B0130A93688
:10081800A80C890B0B2C0130AD02031DFE2B2B08F5
:10082800A9002A08A80008002000A40024080F39FD
:10083800A1002108A2002408F039A1002108A30082
:100848008E152308A1000430A136890B282C210815
:100858008431DA24843120000E166A30890B322C58
:10086800003220000E1222088431DA24843120005C
:100878000E166A30890B3E2C003220000E1208003A
:10088800F40074080F39F1007108F2007408F039A7
:10089800F1007108F30020008E157308F100043090
:1008A800F136890B542C71088431C224843120001C
:1008B8000E166A30890B5E2C003220000E12720868
:1008C8008431C224843120000E166A30890B6A2CC8
:1008D800003220000E1208002000A401A501201CEF
:1008E800792C2208A4072308A53D0130A235A30DC1
:1008F800890B7A2C0130A136A00C890B7F2C20089B
:100908002104031D732C2508A1002408A000080059
:100918002000A801A9012508280784002608293DE8
:1009280085001200031908002508280784002608F6
:10093800293D8500000884311824843101302000C5
:10094800A8070030A93D8F2CF801F9017508780730
:1009580084007608793D850012000319080075089F
:10096800780784007608793D85000008843144249E
:1009780084310130F8070030F93DAA2CF000701CD2
:10098800C82C20008E16CA2C20008E12F01CCE2CEB
:100998000E17CF2C0E13701DD32C0E15D42C0E1140
:1009A800F01DD82C8E1708008E1308002000A00018
:1009B800201CE02C8E16E12C8E12A01CE52C0E17A4
:1009C800E62C0E13201DEA2C0E15EB2C0E11A01D83
:1009D800EF2C8E1708008E1308002000A2008E113D
:1009E80022088431DA24843120000E162A302000AF
:1009F800A1008D30890BFE2CA10BFE2C00322000AB
:100A08000E12080020009101920193018C018D01C2
:100A18008E019601970198013E00B801C301CE01ED
:100A28002000121492141215921508000134003493
:100A38000A34003464340034E8340334103427347E
:100A480020342034203420342034203420342034FE
:100A58000034F20020008E1172088431C2248531DE
:100A680020000E162A30F1008E30890B392DF10B3B
:100A7800392D20000E1208002000A100A0013A30F4
:100A8800210203184D2D30302102031C4D2DA001E9
:100A9800A00A200C080020009E014F309F009E13E2
:100AA8009C01F3309D008B172E00961620009E1394
:100AB80008004534783470346F34733469346E34D4
:100AC80067340034533474346F347034703465349C
:100AD8006434003400308431F124853101308431AC
:100AE800F1240800493464346C3465340034253406
:0A0AF8003234643400343A34003420
:020000040001F9
:0A000E009F173F279F3FFF2FFF3F82
:00000001FF
