:0400000080312B28F8
:100008007E14803120007F08F0002E008C12200022
:100018009E13182896160130B5000030B600252822
:100028009612B501B60125283608003A03191D288D
:1000380025283508003A03190E28013A031914280F
:1000480025289C019E177008FF007E10090080314A
:100058002D282000B501B601B701B801B901BA01D0
:10006800BB017E102000813106292000AF0024301A
:10007800A6002608AA002308A7002208A600A20AAC
:100088000319A30A26088400270885000008A80089
:100098002808B00030080319012925303006031953
:1000A80061283008A6002F088600870126088100ED
:1000B8000130A6002608AF073F28AB012308A70098
:1000C8002208A600A20A0319A30A26088400270802
:1000D80085000008B000003A03190129643A0319A1
:1000E80079280D3A031979283F282A0886008701BC
:1000F800403FAD00413FAE000230A6002608AA07E7
:10010800AE1F8F280330A6002608AB04AD09AE0940
:10011800AD0A0319AE0AB001B00A0530300603195A
:10012800B4283008A600A701A635A70DF330260786
:1001380084008230273D8500003FA800013FA900C8
:1001480029082E02031DAA2828082D02031CB428FA
:100158000130A6002608B00705303006031D952893
:100168002B0803390319C3282D30A6002F08860051
:100178008701260881000130A6002608AF0730084D
:10018800A6002608AC00FF30A6002608AC072C0AFB
:1001980003193F280A30F9000030FA002C08A6009D
:1001A800A701A635A70DF330260784008230273D26
:1001B8008500003FF100013FF2002E08F4002D08F1
:1001C800F3008231342280317208FC007108FB0090
:1001D8008231682280317908303E2000A800280842
:1001E800B0003008A6002F08860087012608810085
:1001F8000130A6002608AF07C7282F088600870108
:10020800810108002000B301B40183310923813141
:100218008331302381318131B321813183315B23B3
:100228008131F401F40A01308131F42181313E3009
:10023800F6008330F7008231C12281312000981402
:1002480063302000A2008330A3003408A5003308DF
:10025800A4003730803139208131F401F40A0130AB
:100268008131F4218131FD30F6008230F70082318E
:10027800C1228131F401F40A01308131F421813144
:100288003730F6000030F7008231C1228131293041
:100298002000B2009630B1007F30890B5129B10B94
:1002A8005129B20B512901302000B3070030B43D69
:1002B8008D1D8729F401F40A02308131F42181313E
:1002C8000030F6008330F7008231C1228131F40119
:1002D800F40A02308131F42181315330F600833041
:1002E800F7008231C122813115302000B2004B3035
:1002F800B100BE30890B7E29B10B7E29B20B7E2955
:100308000000200098140D1D2429F401F40A02307D
:100318008131F42181310030F6008330F7008231D9
:10032800C1228131F401F40A02308131F421813192
:100338004A30F6008330F7008231C1228131200033
:10034800981015302000B2004B30B100BE30890B38
:10035800AB29B10BAB29B20BAB2900002429003023
:100368008231DB228131D030F400CA30890BBA29BE
:10037800F40BBA29033083311D2381313430F40062
:10038800F230890BC529F40BC529033083311D23AD
:1003980081317330F4004830890BD029F40BD0290F
:1003A800033083311D238131023083311D23813194
:1003B800023083311D238131083083311D2381317F
:1003C800003083311D2381310C3083311D2381316D
:1003D800003083311D238131063083311D2308000D
:1003E800F7007703031D142A74087F3EF50075088B
:1003F800FA007A08F5000430F536890B002A7508EA
:10040800F6007608F8007A080F39F5007508F90043
:10041800780883311D238131790883311D23080031
:1004280002307706031D08007408BF3EF500750802
:10043800FA007A08F5000430F536890B202A750889
:10044800F6007608F8007A080F39F5007508F90003
:10045800780883311D238131790883311D230800F1
:10046800F601F701710872040319632AF801F80A02
:10047800F21B482A0130F135F20D890B3F2A013071
:10048800F5007508F8073C2A0130F635F70D890B99
:10049800492A72087402031D532A71087302031C47
:1004A8005A2A7108F3027208F43B76140130F236C6
:1004B800F10C890B5B2A0130F802031D482A7708E2
:1004C800F2007608F100080079087A040319902AE6
:1004D8002000A101A10AFA1B7B2A0130F935FA0D87
:1004E800890B722A0130A0002008A1076F2A7A0818
:1004F8007C02031D812A79087B02031C872A79085C
:10050800FB027A08FC3B0130FA36F90C890B882A81
:100518000130A102031D7B2A7C08FA007B08F90040
:100528000800F50075080F39F2007208F300750825
:10053800F039F2007208F40020008E157408F200F9
:100548000430F236890BA52A72088231DB22823107
:1005580020000E166A30890BAF2A003220000E12D6
:1005680073088231DB22823120000E166A30890B33
:10057800BB2A003220000E120800F901FA017608A1
:100588007907840077087A3D85001200031908006E
:1005980076087907840077087A3D8500000882315B
:1005A800952282310130F9070030FA3DC32AF10063
:1005B800711CE12A20008E16E32A20008E12F11CFD
:1005C800E72A0E17E82A0E13711DEC2A0E15ED2ADC
:1005D8000E11F11DF12A8E1708008E130800013440
:1005E80000340A34003464340034E83403341034FA
:1005F800273420342034203420342034203420344C
:100608002034203420342034003420009101920119
:1006180093018C018D018E019601970198013E008E
:10062800B801C301CE0120001214921412159215BC
:100638000800F30020008E1173088231DB22833119
:1006480020000E162A30F2008E30890B292BF20B6F
:10065800292B20000E12080020009E014F309F0019
:100668009E139C01F4309D008B172E0096162000D7
:100678009E170800483465346C346C346F34203469
:1006880057346F3472346C346434003445347834FD
:1006980070346F34733469346E34673400345334CF
:1006A80074346F347034703465346434003400301A
:1006B80083311D238331013083311D230800253404
:0406C8006434003462
:020000040001F9
:0A000E009F173F279F3FFF2FFF3F82
:00000001FF
